{
  "_format": "hh-sol-artifact-1",
  "contractName": "YetiLands",
  "sourceName": "contracts/YetiLands.sol",
  "abi": [
    {
      "inputs": [],
      "stateMutability": "nonpayable",
      "type": "constructor"
    },
    {
      "anonymous": false,
      "inputs": [
        {
          "indexed": true,
          "internalType": "address",
          "name": "owner",
          "type": "address"
        },
        {
          "indexed": true,
          "internalType": "address",
          "name": "approved",
          "type": "address"
        },
        {
          "indexed": true,
          "internalType": "uint256",
          "name": "tokenId",
          "type": "uint256"
        }
      ],
      "name": "Approval",
      "type": "event"
    },
    {
      "anonymous": false,
      "inputs": [
        {
          "indexed": true,
          "internalType": "address",
          "name": "owner",
          "type": "address"
        },
        {
          "indexed": true,
          "internalType": "address",
          "name": "operator",
          "type": "address"
        },
        {
          "indexed": false,
          "internalType": "bool",
          "name": "approved",
          "type": "bool"
        }
      ],
      "name": "ApprovalForAll",
      "type": "event"
    },
    {
      "anonymous": false,
      "inputs": [
        {
          "indexed": true,
          "internalType": "address",
          "name": "previousOwner",
          "type": "address"
        },
        {
          "indexed": true,
          "internalType": "address",
          "name": "newOwner",
          "type": "address"
        }
      ],
      "name": "OwnershipTransferred",
      "type": "event"
    },
    {
      "anonymous": false,
      "inputs": [
        {
          "indexed": true,
          "internalType": "address",
          "name": "from",
          "type": "address"
        },
        {
          "indexed": true,
          "internalType": "address",
          "name": "to",
          "type": "address"
        },
        {
          "indexed": true,
          "internalType": "uint256",
          "name": "tokenId",
          "type": "uint256"
        }
      ],
      "name": "Transfer",
      "type": "event"
    },
    {
      "inputs": [],
      "name": "_provenance",
      "outputs": [
        {
          "internalType": "string",
          "name": "",
          "type": "string"
        }
      ],
      "stateMutability": "view",
      "type": "function"
    },
    {
      "inputs": [],
      "name": "_reserveTokenId",
      "outputs": [
        {
          "internalType": "uint256",
          "name": "",
          "type": "uint256"
        }
      ],
      "stateMutability": "view",
      "type": "function"
    },
    {
      "inputs": [
        {
          "internalType": "address",
          "name": "",
          "type": "address"
        }
      ],
      "name": "alreadyClaimed",
      "outputs": [
        {
          "internalType": "uint8",
          "name": "",
          "type": "uint8"
        }
      ],
      "stateMutability": "view",
      "type": "function"
    },
    {
      "inputs": [
        {
          "internalType": "address",
          "name": "to",
          "type": "address"
        },
        {
          "internalType": "uint256",
          "name": "tokenId",
          "type": "uint256"
        }
      ],
      "name": "approve",
      "outputs": [],
      "stateMutability": "nonpayable",
      "type": "function"
    },
    {
      "inputs": [
        {
          "internalType": "address",
          "name": "owner",
          "type": "address"
        }
      ],
      "name": "balanceOf",
      "outputs": [
        {
          "internalType": "uint256",
          "name": "",
          "type": "uint256"
        }
      ],
      "stateMutability": "view",
      "type": "function"
    },
    {
      "inputs": [],
      "name": "baseExtension",
      "outputs": [
        {
          "internalType": "string",
          "name": "",
          "type": "string"
        }
      ],
      "stateMutability": "view",
      "type": "function"
    },
    {
      "inputs": [],
      "name": "baseURI",
      "outputs": [
        {
          "internalType": "string",
          "name": "",
          "type": "string"
        }
      ],
      "stateMutability": "view",
      "type": "function"
    },
    {
      "inputs": [
        {
          "internalType": "uint8",
          "name": "_claimAmount",
          "type": "uint8"
        },
        {
          "internalType": "bytes32[]",
          "name": "merkleProof",
          "type": "bytes32[]"
        }
      ],
      "name": "claimLand",
      "outputs": [],
      "stateMutability": "nonpayable",
      "type": "function"
    },
    {
      "inputs": [
        {
          "internalType": "address",
          "name": "",
          "type": "address"
        }
      ],
      "name": "claimLandAllowance",
      "outputs": [
        {
          "internalType": "uint8",
          "name": "",
          "type": "uint8"
        }
      ],
      "stateMutability": "view",
      "type": "function"
    },
    {
      "inputs": [
        {
          "internalType": "uint256",
          "name": "_claimAmount",
          "type": "uint256"
        }
      ],
      "name": "claimLandChunk",
      "outputs": [],
      "stateMutability": "nonpayable",
      "type": "function"
    },
    {
      "inputs": [],
      "name": "claimableMerkleRoot",
      "outputs": [
        {
          "internalType": "bytes32",
          "name": "",
          "type": "bytes32"
        }
      ],
      "stateMutability": "view",
      "type": "function"
    },
    {
      "inputs": [
        {
          "internalType": "uint256",
          "name": "tokenId",
          "type": "uint256"
        }
      ],
      "name": "getApproved",
      "outputs": [
        {
          "internalType": "address",
          "name": "",
          "type": "address"
        }
      ],
      "stateMutability": "view",
      "type": "function"
    },
    {
      "inputs": [],
      "name": "holderMerkleRoot",
      "outputs": [
        {
          "internalType": "bytes32",
          "name": "",
          "type": "bytes32"
        }
      ],
      "stateMutability": "view",
      "type": "function"
    },
    {
      "inputs": [
        {
          "internalType": "address",
          "name": "owner",
          "type": "address"
        },
        {
          "internalType": "address",
          "name": "operator",
          "type": "address"
        }
      ],
      "name": "isApprovedForAll",
      "outputs": [
        {
          "internalType": "bool",
          "name": "",
          "type": "bool"
        }
      ],
      "stateMutability": "view",
      "type": "function"
    },
    {
      "inputs": [],
      "name": "isClaimLandActive",
      "outputs": [
        {
          "internalType": "bool",
          "name": "",
          "type": "bool"
        }
      ],
      "stateMutability": "view",
      "type": "function"
    },
    {
      "inputs": [
        {
          "internalType": "uint256",
          "name": "_claimAmount",
          "type": "uint256"
        },
        {
          "internalType": "address",
          "name": "_claimer",
          "type": "address"
        },
        {
          "internalType": "bytes32[]",
          "name": "_merkleProof",
          "type": "bytes32[]"
        }
      ],
      "name": "isClaimable",
      "outputs": [
        {
          "internalType": "bool",
          "name": "",
          "type": "bool"
        }
      ],
      "stateMutability": "view",
      "type": "function"
    },
    {
      "inputs": [],
      "name": "isHolderSaleActive",
      "outputs": [
        {
          "internalType": "bool",
          "name": "",
          "type": "bool"
        }
      ],
      "stateMutability": "view",
      "type": "function"
    },
    {
      "inputs": [],
      "name": "isPublicSaleActive",
      "outputs": [
        {
          "internalType": "bool",
          "name": "",
          "type": "bool"
        }
      ],
      "stateMutability": "view",
      "type": "function"
    },
    {
      "inputs": [
        {
          "internalType": "address",
          "name": "claimer",
          "type": "address"
        },
        {
          "internalType": "bytes32[]",
          "name": "_merkleProof",
          "type": "bytes32[]"
        }
      ],
      "name": "isSYHolder",
      "outputs": [
        {
          "internalType": "bool",
          "name": "",
          "type": "bool"
        }
      ],
      "stateMutability": "view",
      "type": "function"
    },
    {
      "inputs": [],
      "name": "maxClaimLandSupply",
      "outputs": [
        {
          "internalType": "uint256",
          "name": "",
          "type": "uint256"
        }
      ],
      "stateMutability": "view",
      "type": "function"
    },
    {
      "inputs": [],
      "name": "maxSupply",
      "outputs": [
        {
          "internalType": "uint256",
          "name": "",
          "type": "uint256"
        }
      ],
      "stateMutability": "view",
      "type": "function"
    },
    {
      "inputs": [
        {
          "internalType": "uint256",
          "name": "_mintAmount",
          "type": "uint256"
        }
      ],
      "name": "mint",
      "outputs": [],
      "stateMutability": "payable",
      "type": "function"
    },
    {
      "inputs": [
        {
          "internalType": "uint256",
          "name": "_mintAmount",
          "type": "uint256"
        },
        {
          "internalType": "bytes32[]",
          "name": "merkleProof",
          "type": "bytes32[]"
        }
      ],
      "name": "mintHolder",
      "outputs": [],
      "stateMutability": "payable",
      "type": "function"
    },
    {
      "inputs": [],
      "name": "name",
      "outputs": [
        {
          "internalType": "string",
          "name": "",
          "type": "string"
        }
      ],
      "stateMutability": "view",
      "type": "function"
    },
    {
      "inputs": [],
      "name": "notRevealedURI",
      "outputs": [
        {
          "internalType": "string",
          "name": "",
          "type": "string"
        }
      ],
      "stateMutability": "view",
      "type": "function"
    },
    {
      "inputs": [],
      "name": "owner",
      "outputs": [
        {
          "internalType": "address",
          "name": "",
          "type": "address"
        }
      ],
      "stateMutability": "view",
      "type": "function"
    },
    {
      "inputs": [
        {
          "internalType": "uint256",
          "name": "tokenId",
          "type": "uint256"
        }
      ],
      "name": "ownerOf",
      "outputs": [
        {
          "internalType": "address",
          "name": "",
          "type": "address"
        }
      ],
      "stateMutability": "view",
      "type": "function"
    },
    {
      "inputs": [],
      "name": "renounceOwnership",
      "outputs": [],
      "stateMutability": "nonpayable",
      "type": "function"
    },
    {
      "inputs": [],
      "name": "revealed",
      "outputs": [
        {
          "internalType": "bool",
          "name": "",
          "type": "bool"
        }
      ],
      "stateMutability": "view",
      "type": "function"
    },
    {
      "inputs": [
        {
          "internalType": "address",
          "name": "from",
          "type": "address"
        },
        {
          "internalType": "address",
          "name": "to",
          "type": "address"
        },
        {
          "internalType": "uint256",
          "name": "tokenId",
          "type": "uint256"
        }
      ],
      "name": "safeTransferFrom",
      "outputs": [],
      "stateMutability": "nonpayable",
      "type": "function"
    },
    {
      "inputs": [
        {
          "internalType": "address",
          "name": "from",
          "type": "address"
        },
        {
          "internalType": "address",
          "name": "to",
          "type": "address"
        },
        {
          "internalType": "uint256",
          "name": "tokenId",
          "type": "uint256"
        },
        {
          "internalType": "bytes",
          "name": "_data",
          "type": "bytes"
        }
      ],
      "name": "safeTransferFrom",
      "outputs": [],
      "stateMutability": "nonpayable",
      "type": "function"
    },
    {
      "inputs": [],
      "name": "sale",
      "outputs": [
        {
          "internalType": "uint256",
          "name": "maxTokensPerAddress",
          "type": "uint256"
        },
        {
          "internalType": "uint256",
          "name": "maxTokensPerTransaction",
          "type": "uint256"
        },
        {
          "internalType": "uint256",
          "name": "price",
          "type": "uint256"
        },
        {
          "internalType": "uint256",
          "name": "holderPrice",
          "type": "uint256"
        }
      ],
      "stateMutability": "view",
      "type": "function"
    },
    {
      "inputs": [
        {
          "internalType": "address",
          "name": "operator",
          "type": "address"
        },
        {
          "internalType": "bool",
          "name": "approved",
          "type": "bool"
        }
      ],
      "name": "setApprovalForAll",
      "outputs": [],
      "stateMutability": "nonpayable",
      "type": "function"
    },
    {
      "inputs": [
        {
          "internalType": "string",
          "name": "_baseURI",
          "type": "string"
        },
        {
          "internalType": "string",
          "name": "_baseExtension",
          "type": "string"
        }
      ],
      "name": "setBaseURI",
      "outputs": [],
      "stateMutability": "nonpayable",
      "type": "function"
    },
    {
      "inputs": [
        {
          "internalType": "bool",
          "name": "_state",
          "type": "bool"
        }
      ],
      "name": "setClaimLandActive",
      "outputs": [],
      "stateMutability": "nonpayable",
      "type": "function"
    },
    {
      "inputs": [
        {
          "internalType": "address[]",
          "name": "_users",
          "type": "address[]"
        },
        {
          "internalType": "uint8[]",
          "name": "_allowances",
          "type": "uint8[]"
        }
      ],
      "name": "setClaimLandAllowance",
      "outputs": [],
      "stateMutability": "nonpayable",
      "type": "function"
    },
    {
      "inputs": [
        {
          "internalType": "bytes32",
          "name": "_merkleRoot",
          "type": "bytes32"
        }
      ],
      "name": "setClaimableList",
      "outputs": [],
      "stateMutability": "nonpayable",
      "type": "function"
    },
    {
      "inputs": [
        {
          "internalType": "bytes32",
          "name": "_merkleRoot",
          "type": "bytes32"
        }
      ],
      "name": "setHolderList",
      "outputs": [],
      "stateMutability": "nonpayable",
      "type": "function"
    },
    {
      "inputs": [
        {
          "internalType": "bool",
          "name": "_state",
          "type": "bool"
        }
      ],
      "name": "setHolderSaleActive",
      "outputs": [],
      "stateMutability": "nonpayable",
      "type": "function"
    },
    {
      "inputs": [
        {
          "internalType": "uint256",
          "name": "_maxClaimLandSupply",
          "type": "uint256"
        }
      ],
      "name": "setMaxClaimLandSupply",
      "outputs": [],
      "stateMutability": "nonpayable",
      "type": "function"
    },
    {
      "inputs": [
        {
          "internalType": "string",
          "name": "_notRevealedURI",
          "type": "string"
        }
      ],
      "name": "setNotRevealedURI",
      "outputs": [],
      "stateMutability": "nonpayable",
      "type": "function"
    },
    {
      "inputs": [
        {
          "internalType": "string",
          "name": "provenanceHash",
          "type": "string"
        }
      ],
      "name": "setProvenanceHash",
      "outputs": [],
      "stateMutability": "nonpayable",
      "type": "function"
    },
    {
      "inputs": [
        {
          "internalType": "bool",
          "name": "_state",
          "type": "bool"
        }
      ],
      "name": "setPublicSaleActive",
      "outputs": [],
      "stateMutability": "nonpayable",
      "type": "function"
    },
    {
      "inputs": [
        {
          "internalType": "bool",
          "name": "_revealed",
          "type": "bool"
        }
      ],
      "name": "setRevealed",
      "outputs": [],
      "stateMutability": "nonpayable",
      "type": "function"
    },
    {
      "inputs": [
        {
          "internalType": "uint256",
          "name": "_maxTokensPerAddress",
          "type": "uint256"
        },
        {
          "internalType": "uint256",
          "name": "_maxTokensPerTransaction",
          "type": "uint256"
        },
        {
          "internalType": "uint256",
          "name": "_price",
          "type": "uint256"
        },
        {
          "internalType": "uint256",
          "name": "_holderPrice",
          "type": "uint256"
        }
      ],
      "name": "setSaleDetails",
      "outputs": [],
      "stateMutability": "nonpayable",
      "type": "function"
    },
    {
      "inputs": [
        {
          "internalType": "bytes4",
          "name": "interfaceId",
          "type": "bytes4"
        }
      ],
      "name": "supportsInterface",
      "outputs": [
        {
          "internalType": "bool",
          "name": "",
          "type": "bool"
        }
      ],
      "stateMutability": "view",
      "type": "function"
    },
    {
      "inputs": [],
      "name": "symbol",
      "outputs": [
        {
          "internalType": "string",
          "name": "",
          "type": "string"
        }
      ],
      "stateMutability": "view",
      "type": "function"
    },
    {
      "inputs": [
        {
          "internalType": "uint256",
          "name": "tokenId",
          "type": "uint256"
        }
      ],
      "name": "tokenURI",
      "outputs": [
        {
          "internalType": "string",
          "name": "",
          "type": "string"
        }
      ],
      "stateMutability": "view",
      "type": "function"
    },
    {
      "inputs": [
        {
          "internalType": "address",
          "name": "",
          "type": "address"
        }
      ],
      "name": "tokensMintedByAddress",
      "outputs": [
        {
          "internalType": "uint256",
          "name": "",
          "type": "uint256"
        }
      ],
      "stateMutability": "view",
      "type": "function"
    },
    {
      "inputs": [],
      "name": "totalSupply",
      "outputs": [
        {
          "internalType": "uint256",
          "name": "",
          "type": "uint256"
        }
      ],
      "stateMutability": "view",
      "type": "function"
    },
    {
      "inputs": [
        {
          "internalType": "address",
          "name": "from",
          "type": "address"
        },
        {
          "internalType": "address",
          "name": "to",
          "type": "address"
        },
        {
          "internalType": "uint256",
          "name": "tokenId",
          "type": "uint256"
        }
      ],
      "name": "transferFrom",
      "outputs": [],
      "stateMutability": "nonpayable",
      "type": "function"
    },
    {
      "inputs": [
        {
          "internalType": "address",
          "name": "newOwner",
          "type": "address"
        }
      ],
      "name": "transferOwnership",
      "outputs": [],
      "stateMutability": "nonpayable",
      "type": "function"
    },
    {
      "inputs": [],
      "name": "withdraw",
      "outputs": [],
      "stateMutability": "payable",
      "type": "function"
    }
  ],
  "bytecode": "0x60806040526109c0600f55612710601055600f546011553480156200002357600080fd5b506040518060400160405280600c81526020017f54657374596574694c616e6400000000000000000000000000000000000000008152506040518060400160405280600781526020017f5445594c414e44000000000000000000000000000000000000000000000000008152508160009080519060200190620000a8929190620002d7565b508060019080519060200190620000c1929190620002d7565b505050620000e4620000d86200013d60201b60201c565b6200014560201b60201c565b6001600781905550620001376040518060400160405280601081526020017f636f6e74726163742063726561746564000000000000000000000000000000008152506200020b60201b62002e381760201c565b620004b3565b600033905090565b6000600660009054906101000a900473ffffffffffffffffffffffffffffffffffffffff16905081600660006101000a81548173ffffffffffffffffffffffffffffffffffffffff021916908373ffffffffffffffffffffffffffffffffffffffff1602179055508173ffffffffffffffffffffffffffffffffffffffff168173ffffffffffffffffffffffffffffffffffffffff167f8be0079c531659141344cd1fd0a4f28419497f9722a3daafe3b4186f6b6457e060405160405180910390a35050565b620002ab816040516024016200022291906200042b565b6040516020818303038152906040527f41304fac000000000000000000000000000000000000000000000000000000007bffffffffffffffffffffffffffffffffffffffffffffffffffffffff19166020820180517bffffffffffffffffffffffffffffffffffffffffffffffffffffffff8381831617835250505050620002ae60201b60201c565b50565b60008151905060006a636f6e736f6c652e6c6f679050602083016000808483855afa5050505050565b828054620002e5906200047e565b90600052602060002090601f01602090048101928262000309576000855562000355565b82601f106200032457805160ff191683800117855562000355565b8280016001018555821562000355579182015b828111156200035457825182559160200191906001019062000337565b5b50905062000364919062000368565b5090565b5b808211156200038357600081600090555060010162000369565b5090565b600081519050919050565b600082825260208201905092915050565b60005b83811015620003c3578082015181840152602081019050620003a6565b83811115620003d3576000848401525b50505050565b6000601f19601f8301169050919050565b6000620003f78262000387565b62000403818562000392565b935062000415818560208601620003a3565b6200042081620003d9565b840191505092915050565b60006020820190508181036000830152620004478184620003ea565b905092915050565b7f4e487b7100000000000000000000000000000000000000000000000000000000600052602260045260246000fd5b600060028204905060018216806200049757607f821691505b602082108103620004ad57620004ac6200044f565b5b50919050565b615faf80620004c36000396000f3fe60806040526004361061031a5760003560e01c80639351158c116101ab578063c87b56dd116100f7578063e985e9c511610095578063f2c4ce1e1161006f578063f2c4ce1e14610b9c578063f2fde38b14610bc5578063f54b893b14610bee578063f5f2e61814610c2b5761031a565b8063e985e9c514610b0b578063ecabe15f14610b48578063f10b74df14610b735761031a565b8063d74e52ce116100d1578063d74e52ce14610a74578063db5c69e214610a9d578063e0a8085314610ab9578063e2e06fa314610ae25761031a565b8063c87b56dd146109e1578063d5abeb0114610a1e578063d69714e714610a495761031a565b8063a0712d6811610164578063af3b89d91161013e578063af3b89d914610925578063b88d4fde14610950578063bcc443a614610979578063c6682862146109b65761031a565b8063a0712d68146108b7578063a22cb465146108d3578063a816bafc146108fc5761031a565b80639351158c146107bd578063937423cc146107e657806395d89b411461080f578063962467fd1461083a5780639c3e1378146108655780639f127e571461088e5761031a565b80635e8bf9f71161026a57806370a08231116102235780637277286d116101fd5780637277286d1461070157806383a0fe9b1461072a5780638d22bb0a146107555780638da5cb5b146107925761031a565b806370a0823114610682578063715018a6146106bf57806372250380146106d65761031a565b80635e8bf9f7146105495780636352211e1461058657806365137631146105c35780636790a9de146106005780636ad1fe02146106295780636c0360eb146106575761031a565b806318160ddd116102d75780633695d947116102b15780633695d947146104c05780633ccfd60b146104eb57806342842e0e146104f5578063518302271461051e5761031a565b806318160ddd146104415780631e84c4131461046c57806323b872dd146104975761031a565b806301ffc9a71461031f57806306fdde031461035c578063081812fc14610387578063095ea7b3146103c457806310969523146103ed578063143efd1c14610416575b600080fd5b34801561032b57600080fd5b5061034660048036038101906103419190613e44565b610c54565b6040516103539190613e8c565b60405180910390f35b34801561036857600080fd5b50610371610d36565b60405161037e9190613f40565b60405180910390f35b34801561039357600080fd5b506103ae60048036038101906103a99190613f98565b610dc8565b6040516103bb9190614006565b60405180910390f35b3480156103d057600080fd5b506103eb60048036038101906103e6919061404d565b610e4d565b005b3480156103f957600080fd5b50610414600480360381019061040f91906141c2565b610f64565b005b34801561042257600080fd5b5061042b610ffa565b6040516104389190614224565b60405180910390f35b34801561044d57600080fd5b50610456611000565b604051610463919061424e565b60405180910390f35b34801561047857600080fd5b5061048161102b565b60405161048e9190613e8c565b60405180910390f35b3480156104a357600080fd5b506104be60048036038101906104b99190614269565b61103e565b005b3480156104cc57600080fd5b506104d561109e565b6040516104e29190613e8c565b60405180910390f35b6104f36110b1565b005b34801561050157600080fd5b5061051c60048036038101906105179190614269565b6111dc565b005b34801561052a57600080fd5b506105336111fc565b6040516105409190613e8c565b60405180910390f35b34801561055557600080fd5b50610570600480360381019061056b91906142bc565b61120f565b60405161057d919061424e565b60405180910390f35b34801561059257600080fd5b506105ad60048036038101906105a89190613f98565b611227565b6040516105ba9190614006565b60405180910390f35b3480156105cf57600080fd5b506105ea60048036038101906105e591906143dd565b6112d8565b6040516105f79190613e8c565b60405180910390f35b34801561060c57600080fd5b506106276004803603810190610622919061444c565b61131d565b005b34801561063557600080fd5b5061063e6113cb565b60405161064e94939291906144c4565b60405180910390f35b34801561066357600080fd5b5061066c6113e9565b6040516106799190613f40565b60405180910390f35b34801561068e57600080fd5b506106a960048036038101906106a491906142bc565b611477565b6040516106b6919061424e565b60405180910390f35b3480156106cb57600080fd5b506106d461152e565b005b3480156106e257600080fd5b506106eb6115b6565b6040516106f89190613f40565b60405180910390f35b34801561070d57600080fd5b5061072860048036038101906107239190613f98565b611644565b005b34801561073657600080fd5b5061073f6116ca565b60405161074c9190614224565b60405180910390f35b34801561076157600080fd5b5061077c60048036038101906107779190614509565b6116d0565b6040516107899190613e8c565b60405180910390f35b34801561079e57600080fd5b506107a761171c565b6040516107b49190614006565b60405180910390f35b3480156107c957600080fd5b506107e460048036038101906107df9190614565565b611746565b005b3480156107f257600080fd5b5061080d600480360381019061080891906145be565b61180a565b005b34801561081b57600080fd5b506108246118a3565b6040516108319190613f40565b60405180910390f35b34801561084657600080fd5b5061084f611935565b60405161085c919061424e565b60405180910390f35b34801561087157600080fd5b5061088c600480360381019061088791906145eb565b61193b565b005b34801561089a57600080fd5b506108b560048036038101906108b09190614703565b611a23565b005b6108d160048036038101906108cc9190613f98565b611bb5565b005b3480156108df57600080fd5b506108fa60048036038101906108f59190614784565b611e6f565b005b34801561090857600080fd5b50610923600480360381019061091e91906145be565b611e85565b005b34801561093157600080fd5b5061093a611f1e565b604051610947919061424e565b60405180910390f35b34801561095c57600080fd5b5061097760048036038101906109729190614865565b611f24565b005b34801561098557600080fd5b506109a0600480360381019061099b91906142bc565b611f86565b6040516109ad9190614904565b60405180910390f35b3480156109c257600080fd5b506109cb611fa6565b6040516109d89190613f40565b60405180910390f35b3480156109ed57600080fd5b50610a086004803603810190610a039190613f98565b612034565b604051610a159190613f40565b60405180910390f35b348015610a2a57600080fd5b50610a33612186565b604051610a40919061424e565b60405180910390f35b348015610a5557600080fd5b50610a5e61218c565b604051610a6b9190613f40565b60405180910390f35b348015610a8057600080fd5b50610a9b6004803603810190610a9691906149a1565b61221a565b005b610ab76004803603810190610ab29190614a01565b612481565b005b348015610ac557600080fd5b50610ae06004803603810190610adb91906145be565b612785565b005b348015610aee57600080fd5b50610b096004803603810190610b0491906145be565b61281e565b005b348015610b1757600080fd5b50610b326004803603810190610b2d9190614a5d565b6128b7565b604051610b3f9190613e8c565b60405180910390f35b348015610b5457600080fd5b50610b5d61294b565b604051610b6a9190613e8c565b60405180910390f35b348015610b7f57600080fd5b50610b9a6004803603810190610b959190614565565b61295e565b005b348015610ba857600080fd5b50610bc36004803603810190610bbe91906141c2565b612a22565b005b348015610bd157600080fd5b50610bec6004803603810190610be791906142bc565b612ab8565b005b348015610bfa57600080fd5b50610c156004803603810190610c1091906142bc565b612baf565b604051610c229190614904565b60405180910390f35b348015610c3757600080fd5b50610c526004803603810190610c4d9190613f98565b612bcf565b005b60007f80ac58cd000000000000000000000000000000000000000000000000000000007bffffffffffffffffffffffffffffffffffffffffffffffffffffffff1916827bffffffffffffffffffffffffffffffffffffffffffffffffffffffff19161480610d1f57507f5b5e139f000000000000000000000000000000000000000000000000000000007bffffffffffffffffffffffffffffffffffffffffffffffffffffffff1916827bffffffffffffffffffffffffffffffffffffffffffffffffffffffff1916145b80610d2f5750610d2e82612ed1565b5b9050919050565b606060008054610d4590614acc565b80601f0160208091040260200160405190810160405280929190818152602001828054610d7190614acc565b8015610dbe5780601f10610d9357610100808354040283529160200191610dbe565b820191906000526020600020905b815481529060010190602001808311610da157829003601f168201915b5050505050905090565b6000610dd382612f3b565b610e12576040517f08c379a0000000000000000000000000000000000000000000000000000000008152600401610e0990614b6f565b60405180910390fd5b6004600083815260200190815260200160002060009054906101000a900473ffffffffffffffffffffffffffffffffffffffff169050919050565b6000610e5882611227565b90508073ffffffffffffffffffffffffffffffffffffffff168373ffffffffffffffffffffffffffffffffffffffff1603610ec8576040517f08c379a0000000000000000000000000000000000000000000000000000000008152600401610ebf90614c01565b60405180910390fd5b8073ffffffffffffffffffffffffffffffffffffffff16610ee7612fa7565b73ffffffffffffffffffffffffffffffffffffffff161480610f165750610f1581610f10612fa7565b6128b7565b5b610f55576040517f08c379a0000000000000000000000000000000000000000000000000000000008152600401610f4c90614c93565b60405180910390fd5b610f5f8383612faf565b505050565b610f6c612fa7565b73ffffffffffffffffffffffffffffffffffffffff16610f8a61171c565b73ffffffffffffffffffffffffffffffffffffffff1614610fe0576040517f08c379a0000000000000000000000000000000000000000000000000000000008152600401610fd790614cff565b60405180910390fd5b80600a9080519060200190610ff6929190613d35565b5050565b60085481565b6000600f546011546110126019613068565b61101c9190614d4e565b6110269190614da4565b905090565b600b60029054906101000a900460ff1681565b61104f611049612fa7565b82613076565b61108e576040517f08c379a000000000000000000000000000000000000000000000000000000000815260040161108590614e4a565b60405180910390fd5b611099838383613154565b505050565b600b60019054906101000a900460ff1681565b6110b9612fa7565b73ffffffffffffffffffffffffffffffffffffffff166110d761171c565b73ffffffffffffffffffffffffffffffffffffffff161461112d576040517f08c379a000000000000000000000000000000000000000000000000000000000815260040161112490614cff565b60405180910390fd5b60003373ffffffffffffffffffffffffffffffffffffffff164760405161115390614e9b565b60006040518083038185875af1925050503d8060008114611190576040519150601f19603f3d011682016040523d82523d6000602084013e611195565b606091505b50509050806111d9576040517f08c379a00000000000000000000000000000000000000000000000000000000081526004016111d090614efc565b60405180910390fd5b50565b6111f783838360405180602001604052806000815250611f24565b505050565b600b60009054906101000a900460ff1681565b60186020528060005260406000206000915090505481565b6000806002600084815260200190815260200160002060009054906101000a900473ffffffffffffffffffffffffffffffffffffffff169050600073ffffffffffffffffffffffffffffffffffffffff168173ffffffffffffffffffffffffffffffffffffffff16036112cf576040517f08c379a00000000000000000000000000000000000000000000000000000000081526004016112c690614f8e565b60405180910390fd5b80915050919050565b60008083856040516020016112ee929190615017565b60405160208183030381529060405280519060200120905061131383600954836133ba565b9150509392505050565b611325612fa7565b73ffffffffffffffffffffffffffffffffffffffff1661134361171c565b73ffffffffffffffffffffffffffffffffffffffff1614611399576040517f08c379a000000000000000000000000000000000000000000000000000000000815260040161139090614cff565b60405180910390fd5b81600d90805190602001906113af929190613d35565b5080600e90805190602001906113c6929190613d35565b505050565b60128060000154908060010154908060020154908060030154905084565b600d80546113f690614acc565b80601f016020809104026020016040519081016040528092919081815260200182805461142290614acc565b801561146f5780601f106114445761010080835404028352916020019161146f565b820191906000526020600020905b81548152906001019060200180831161145257829003601f168201915b505050505081565b60008073ffffffffffffffffffffffffffffffffffffffff168273ffffffffffffffffffffffffffffffffffffffff16036114e7576040517f08c379a00000000000000000000000000000000000000000000000000000000081526004016114de906150b5565b60405180910390fd5b600360008373ffffffffffffffffffffffffffffffffffffffff1673ffffffffffffffffffffffffffffffffffffffff168152602001908152602001600020549050919050565b611536612fa7565b73ffffffffffffffffffffffffffffffffffffffff1661155461171c565b73ffffffffffffffffffffffffffffffffffffffff16146115aa576040517f08c379a00000000000000000000000000000000000000000000000000000000081526004016115a190614cff565b60405180910390fd5b6115b460006133d1565b565b600c80546115c390614acc565b80601f01602080910402602001604051908101604052809291908181526020018280546115ef90614acc565b801561163c5780601f106116115761010080835404028352916020019161163c565b820191906000526020600020905b81548152906001019060200180831161161f57829003601f168201915b505050505081565b61164c612fa7565b73ffffffffffffffffffffffffffffffffffffffff1661166a61171c565b73ffffffffffffffffffffffffffffffffffffffff16146116c0576040517f08c379a00000000000000000000000000000000000000000000000000000000081526004016116b790614cff565b60405180910390fd5b80600f8190555050565b60095481565b60006116db83613497565b6000836040516020016116ee91906150d5565b60405160208183030381529060405280519060200120905061171383600854836133ba565b91505092915050565b6000600660009054906101000a900473ffffffffffffffffffffffffffffffffffffffff16905090565b61174e612fa7565b73ffffffffffffffffffffffffffffffffffffffff1661176c61171c565b73ffffffffffffffffffffffffffffffffffffffff16146117c2576040517f08c379a00000000000000000000000000000000000000000000000000000000081526004016117b990614cff565b60405180910390fd5b806009819055506118076040518060400160405280600e81526020017f636c61696d61626c65206c697374000000000000000000000000000000000000815250612e38565b50565b611812612fa7565b73ffffffffffffffffffffffffffffffffffffffff1661183061171c565b73ffffffffffffffffffffffffffffffffffffffff1614611886576040517f08c379a000000000000000000000000000000000000000000000000000000000815260040161187d90614cff565b60405180910390fd5b80600b60036101000a81548160ff02191690831515021790555050565b6060600180546118b290614acc565b80601f01602080910402602001604051908101604052809291908181526020018280546118de90614acc565b801561192b5780601f106119005761010080835404028352916020019161192b565b820191906000526020600020905b81548152906001019060200180831161190e57829003601f168201915b5050505050905090565b600f5481565b611943612fa7565b73ffffffffffffffffffffffffffffffffffffffff1661196161171c565b73ffffffffffffffffffffffffffffffffffffffff16146119b7576040517f08c379a00000000000000000000000000000000000000000000000000000000081526004016119ae90614cff565b60405180910390fd5b83601260000181905550826012600101819055508160126002018190555080601260030181905550611a1d6040518060400160405280601081526020017f7365742073616c652064657461696c7300000000000000000000000000000000815250612e38565b50505050565b611a2b612fa7565b73ffffffffffffffffffffffffffffffffffffffff16611a4961171c565b73ffffffffffffffffffffffffffffffffffffffff1614611a9f576040517f08c379a0000000000000000000000000000000000000000000000000000000008152600401611a9690614cff565b60405180910390fd5b818190508484905014611ae7576040517f08c379a0000000000000000000000000000000000000000000000000000000008152600401611ade9061513c565b60405180910390fd5b60005b84849050811015611bae57828282818110611b0857611b0761515c565b5b9050602002016020810190611b1d919061518b565b60176000878785818110611b3457611b3361515c565b5b9050602002016020810190611b4991906142bc565b73ffffffffffffffffffffffffffffffffffffffff1673ffffffffffffffffffffffffffffffffffffffff16815260200190815260200160002060006101000a81548160ff021916908360ff1602179055508080611ba6906151b8565b915050611aea565b5050505050565b600b60029054906101000a900460ff16611c04576040517f08c379a0000000000000000000000000000000000000000000000000000000008152600401611bfb9061524c565b60405180910390fd5b60008111611c47576040517f08c379a0000000000000000000000000000000000000000000000000000000008152600401611c3e906152b8565b60405180910390fd5b806012600101541015611c8f576040517f08c379a0000000000000000000000000000000000000000000000000000000008152600401611c8690615324565b60405180910390fd5b60126000015481601860003373ffffffffffffffffffffffffffffffffffffffff1673ffffffffffffffffffffffffffffffffffffffff16815260200190815260200160002054611ce09190614d4e565b1115611d21576040517f08c379a0000000000000000000000000000000000000000000000000000000008152600401611d18906153b6565b60405180910390fd5b600f54601054611d319190614da4565b81601154611d3f9190614d4e565b1115611d80576040517f08c379a0000000000000000000000000000000000000000000000000000000008152600401611d7790615422565b60405180910390fd5b80601260020154611d919190615442565b341015611dd3576040517f08c379a0000000000000000000000000000000000000000000000000000000008152600401611dca9061550e565b60405180910390fd5b60005b81811015611e1557611dea33601154613530565b60116000815480929190611dfd906151b8565b91905055508080611e0d906151b8565b915050611dd6565b5080601860003373ffffffffffffffffffffffffffffffffffffffff1673ffffffffffffffffffffffffffffffffffffffff1681526020019081526020016000206000828254611e659190614d4e565b9250508190555050565b611e81611e7a612fa7565b838361354e565b5050565b611e8d612fa7565b73ffffffffffffffffffffffffffffffffffffffff16611eab61171c565b73ffffffffffffffffffffffffffffffffffffffff1614611f01576040517f08c379a0000000000000000000000000000000000000000000000000000000008152600401611ef890614cff565b60405180910390fd5b80600b60016101000a81548160ff02191690831515021790555050565b60115481565b611f35611f2f612fa7565b83613076565b611f74576040517f08c379a0000000000000000000000000000000000000000000000000000000008152600401611f6b90614e4a565b60405180910390fd5b611f80848484846136ba565b50505050565b60176020528060005260406000206000915054906101000a900460ff1681565b600e8054611fb390614acc565b80601f0160208091040260200160405190810160405280929190818152602001828054611fdf90614acc565b801561202c5780601f106120015761010080835404028352916020019161202c565b820191906000526020600020905b81548152906001019060200180831161200f57829003601f168201915b505050505081565b606061203f82612f3b565b61207e576040517f08c379a0000000000000000000000000000000000000000000000000000000008152600401612075906155a0565b60405180910390fd5b600b60009054906101000a900460ff1661212457600c805461209f90614acc565b80601f01602080910402602001604051908101604052809291908181526020018280546120cb90614acc565b80156121185780601f106120ed57610100808354040283529160200191612118565b820191906000526020600020905b8154815290600101906020018083116120fb57829003601f168201915b50505050509050612181565b6000600d805461213390614acc565b90501161214f576040518060200160405280600081525061217e565b600d61215a83613716565b600e60405160200161216e93929190615690565b6040516020818303038152906040525b90505b919050565b60105481565b600a805461219990614acc565b80601f01602080910402602001604051908101604052809291908181526020018280546121c590614acc565b80156122125780601f106121e757610100808354040283529160200191612212565b820191906000526020600020905b8154815290600101906020018083116121f557829003601f168201915b505050505081565b600b60019054906101000a900460ff16612269576040517f08c379a00000000000000000000000000000000000000000000000000000000081526004016122609061570d565b60405180910390fd5b6000601660003373ffffffffffffffffffffffffffffffffffffffff1673ffffffffffffffffffffffffffffffffffffffff16815260200190815260200160002060009054906101000a900460ff1660ff16146122fb576040517f08c379a00000000000000000000000000000000000000000000000000000000081526004016122f290615779565b60405180910390fd5b61234a8360ff1633848480806020026020016040519081016040528093929190818152602001838360200280828437600081840152601f19601f820116905080830192505050505050506112d8565b612389576040517f08c379a00000000000000000000000000000000000000000000000000000000081526004016123809061580b565b60405180910390fd5b6010548360ff1661239a6019613068565b6123a49190614d4e565b11156123e5576040517f08c379a00000000000000000000000000000000000000000000000000000000081526004016123dc90615422565b60405180910390fd5b60005b8360ff1681101561242357612406336124016019613068565b613530565b6124106019613876565b808061241b906151b8565b9150506123e8565b5082601660003373ffffffffffffffffffffffffffffffffffffffff1673ffffffffffffffffffffffffffffffffffffffff16815260200190815260200160002060006101000a81548160ff021916908360ff160217905550505050565b600b60039054906101000a900460ff166124d0576040517f08c379a00000000000000000000000000000000000000000000000000000000081526004016124c790615877565b60405180910390fd5b60008211612513576040517f08c379a000000000000000000000000000000000000000000000000000000000815260040161250a906152b8565b60405180910390fd5b81601260010154101561255b576040517f08c379a000000000000000000000000000000000000000000000000000000000815260040161255290615324565b60405180910390fd5b61256533826116d0565b6125a4576040517f08c379a000000000000000000000000000000000000000000000000000000000815260040161259b90615909565b60405180910390fd5b60126000015482601860003373ffffffffffffffffffffffffffffffffffffffff1673ffffffffffffffffffffffffffffffffffffffff168152602001908152602001600020546125f59190614d4e565b1115612636576040517f08c379a000000000000000000000000000000000000000000000000000000000815260040161262d906153b6565b60405180910390fd5b600f546010546126469190614da4565b826011546126549190614d4e565b1115612695576040517f08c379a000000000000000000000000000000000000000000000000000000000815260040161268c90615422565b60405180910390fd5b816012600301546126a69190615442565b3410156126e8576040517f08c379a00000000000000000000000000000000000000000000000000000000081526004016126df9061550e565b60405180910390fd5b60005b8281101561272a576126ff33601154613530565b60116000815480929190612712906151b8565b91905055508080612722906151b8565b9150506126eb565b5081601860003373ffffffffffffffffffffffffffffffffffffffff1673ffffffffffffffffffffffffffffffffffffffff168152602001908152602001600020600082825461277a9190614d4e565b925050819055505050565b61278d612fa7565b73ffffffffffffffffffffffffffffffffffffffff166127ab61171c565b73ffffffffffffffffffffffffffffffffffffffff1614612801576040517f08c379a00000000000000000000000000000000000000000000000000000000081526004016127f890614cff565b60405180910390fd5b80600b60006101000a81548160ff02191690831515021790555050565b612826612fa7565b73ffffffffffffffffffffffffffffffffffffffff1661284461171c565b73ffffffffffffffffffffffffffffffffffffffff161461289a576040517f08c379a000000000000000000000000000000000000000000000000000000000815260040161289190614cff565b60405180910390fd5b80600b60026101000a81548160ff02191690831515021790555050565b6000600560008473ffffffffffffffffffffffffffffffffffffffff1673ffffffffffffffffffffffffffffffffffffffff16815260200190815260200160002060008373ffffffffffffffffffffffffffffffffffffffff1673ffffffffffffffffffffffffffffffffffffffff16815260200190815260200160002060009054906101000a900460ff16905092915050565b600b60039054906101000a900460ff1681565b612966612fa7565b73ffffffffffffffffffffffffffffffffffffffff1661298461171c565b73ffffffffffffffffffffffffffffffffffffffff16146129da576040517f08c379a00000000000000000000000000000000000000000000000000000000081526004016129d190614cff565b60405180910390fd5b80600881905550612a1f6040518060400160405280600b81526020017f686f6c646572206c697374000000000000000000000000000000000000000000815250612e38565b50565b612a2a612fa7565b73ffffffffffffffffffffffffffffffffffffffff16612a4861171c565b73ffffffffffffffffffffffffffffffffffffffff1614612a9e576040517f08c379a0000000000000000000000000000000000000000000000000000000008152600401612a9590614cff565b60405180910390fd5b80600c9080519060200190612ab4929190613d35565b5050565b612ac0612fa7565b73ffffffffffffffffffffffffffffffffffffffff16612ade61171c565b73ffffffffffffffffffffffffffffffffffffffff1614612b34576040517f08c379a0000000000000000000000000000000000000000000000000000000008152600401612b2b90614cff565b60405180910390fd5b600073ffffffffffffffffffffffffffffffffffffffff168173ffffffffffffffffffffffffffffffffffffffff1603612ba3576040517f08c379a0000000000000000000000000000000000000000000000000000000008152600401612b9a9061599b565b60405180910390fd5b612bac816133d1565b50565b60166020528060005260406000206000915054906101000a900460ff1681565b600b60019054906101000a900460ff16612c1e576040517f08c379a0000000000000000000000000000000000000000000000000000000008152600401612c159061570d565b60405180910390fd5b6000601760003373ffffffffffffffffffffffffffffffffffffffff1673ffffffffffffffffffffffffffffffffffffffff16815260200190815260200160002060009054906101000a900460ff1660ff16905081811015612cb5576040517f08c379a0000000000000000000000000000000000000000000000000000000008152600401612cac90615a07565b60405180910390fd5b60105481612cc36019613068565b612ccd9190614d4e565b1115612d0e576040517f08c379a0000000000000000000000000000000000000000000000000000000008152600401612d0590615422565b60405180910390fd5b60005b82811015612e3357612d2c33612d276019613068565b613530565b612d366019613876565b601760003373ffffffffffffffffffffffffffffffffffffffff1673ffffffffffffffffffffffffffffffffffffffff168152602001908152602001600020600081819054906101000a900460ff1680929190612d9290615a27565b91906101000a81548160ff021916908360ff16021790555050601660003373ffffffffffffffffffffffffffffffffffffffff1673ffffffffffffffffffffffffffffffffffffffff168152602001908152602001600020600081819054906101000a900460ff1680929190612e0790615a50565b91906101000a81548160ff021916908360ff160217905550508080612e2b906151b8565b915050612d11565b505050565b612ece81604051602401612e4c9190613f40565b6040516020818303038152906040527f41304fac000000000000000000000000000000000000000000000000000000007bffffffffffffffffffffffffffffffffffffffffffffffffffffffff19166020820180517bffffffffffffffffffffffffffffffffffffffffffffffffffffffff838183161783525050505061388c565b50565b60007f01ffc9a7000000000000000000000000000000000000000000000000000000007bffffffffffffffffffffffffffffffffffffffffffffffffffffffff1916827bffffffffffffffffffffffffffffffffffffffffffffffffffffffff1916149050919050565b60008073ffffffffffffffffffffffffffffffffffffffff166002600084815260200190815260200160002060009054906101000a900473ffffffffffffffffffffffffffffffffffffffff1673ffffffffffffffffffffffffffffffffffffffff1614159050919050565b600033905090565b816004600083815260200190815260200160002060006101000a81548173ffffffffffffffffffffffffffffffffffffffff021916908373ffffffffffffffffffffffffffffffffffffffff160217905550808273ffffffffffffffffffffffffffffffffffffffff1661302283611227565b73ffffffffffffffffffffffffffffffffffffffff167f8c5be1e5ebec7d5bd14f71427d1e84f3dd0314c0f7b2291e5b200ac8c7c3b92560405160405180910390a45050565b600081600001549050919050565b600061308182612f3b565b6130c0576040517f08c379a00000000000000000000000000000000000000000000000000000000081526004016130b790615aeb565b60405180910390fd5b60006130cb83611227565b90508073ffffffffffffffffffffffffffffffffffffffff168473ffffffffffffffffffffffffffffffffffffffff16148061310d575061310c81856128b7565b5b8061314b57508373ffffffffffffffffffffffffffffffffffffffff1661313384610dc8565b73ffffffffffffffffffffffffffffffffffffffff16145b91505092915050565b8273ffffffffffffffffffffffffffffffffffffffff1661317482611227565b73ffffffffffffffffffffffffffffffffffffffff16146131ca576040517f08c379a00000000000000000000000000000000000000000000000000000000081526004016131c190615b7d565b60405180910390fd5b600073ffffffffffffffffffffffffffffffffffffffff168273ffffffffffffffffffffffffffffffffffffffff1603613239576040517f08c379a000000000000000000000000000000000000000000000000000000000815260040161323090615c0f565b60405180910390fd5b6132448383836138b5565b61324f600082612faf565b6001600360008573ffffffffffffffffffffffffffffffffffffffff1673ffffffffffffffffffffffffffffffffffffffff168152602001908152602001600020600082825461329f9190614da4565b925050819055506001600360008473ffffffffffffffffffffffffffffffffffffffff1673ffffffffffffffffffffffffffffffffffffffff16815260200190815260200160002060008282546132f69190614d4e565b92505081905550816002600083815260200190815260200160002060006101000a81548173ffffffffffffffffffffffffffffffffffffffff021916908373ffffffffffffffffffffffffffffffffffffffff160217905550808273ffffffffffffffffffffffffffffffffffffffff168473ffffffffffffffffffffffffffffffffffffffff167fddf252ad1be2c89b69c2b068fc378daa952ba7f163c4a11628f55a4df523b3ef60405160405180910390a46133b58383836138ba565b505050565b6000826133c785846138bf565b1490509392505050565b6000600660009054906101000a900473ffffffffffffffffffffffffffffffffffffffff16905081600660006101000a81548173ffffffffffffffffffffffffffffffffffffffff021916908373ffffffffffffffffffffffffffffffffffffffff1602179055508173ffffffffffffffffffffffffffffffffffffffff168173ffffffffffffffffffffffffffffffffffffffff167f8be0079c531659141344cd1fd0a4f28419497f9722a3daafe3b4186f6b6457e060405160405180910390a35050565b61352d816040516024016134ab9190614006565b6040516020818303038152906040527f2c2ecbc2000000000000000000000000000000000000000000000000000000007bffffffffffffffffffffffffffffffffffffffffffffffffffffffff19166020820180517bffffffffffffffffffffffffffffffffffffffffffffffffffffffff838183161783525050505061388c565b50565b61354a828260405180602001604052806000815250613915565b5050565b8173ffffffffffffffffffffffffffffffffffffffff168373ffffffffffffffffffffffffffffffffffffffff16036135bc576040517f08c379a00000000000000000000000000000000000000000000000000000000081526004016135b390615c7b565b60405180910390fd5b80600560008573ffffffffffffffffffffffffffffffffffffffff1673ffffffffffffffffffffffffffffffffffffffff16815260200190815260200160002060008473ffffffffffffffffffffffffffffffffffffffff1673ffffffffffffffffffffffffffffffffffffffff16815260200190815260200160002060006101000a81548160ff0219169083151502179055508173ffffffffffffffffffffffffffffffffffffffff168373ffffffffffffffffffffffffffffffffffffffff167f17307eab39ab6107e8899845ad3d59bd9653f200f220920489ca2b5937696c31836040516136ad9190613e8c565b60405180910390a3505050565b6136c5848484613154565b6136d184848484613970565b613710576040517f08c379a000000000000000000000000000000000000000000000000000000000815260040161370790615d0d565b60405180910390fd5b50505050565b60606000820361375d576040518060400160405280600181526020017f30000000000000000000000000000000000000000000000000000000000000008152509050613871565b600082905060005b6000821461378f578080613778906151b8565b915050600a826137889190615d5c565b9150613765565b60008167ffffffffffffffff8111156137ab576137aa614097565b5b6040519080825280601f01601f1916602001820160405280156137dd5781602001600182028036833780820191505090505b5090505b6000851461386a576001826137f69190614da4565b9150600a856138059190615d8d565b60306138119190614d4e565b60f81b8183815181106138275761382661515c565b5b60200101907effffffffffffffffffffffffffffffffffffffffffffffffffffffffffffff1916908160001a905350600a856138639190615d5c565b94506137e1565b8093505050505b919050565b6001816000016000828254019250508190555050565b60008151905060006a636f6e736f6c652e6c6f679050602083016000808483855afa5050505050565b505050565b505050565b60008082905060005b845181101561390a576138f5828683815181106138e8576138e761515c565b5b6020026020010151613af7565b91508080613902906151b8565b9150506138c8565b508091505092915050565b61391f8383613b22565b61392c6000848484613970565b61396b576040517f08c379a000000000000000000000000000000000000000000000000000000000815260040161396290615d0d565b60405180910390fd5b505050565b60006139918473ffffffffffffffffffffffffffffffffffffffff16613cfb565b15613aea578373ffffffffffffffffffffffffffffffffffffffff1663150b7a026139ba612fa7565b8786866040518563ffffffff1660e01b81526004016139dc9493929190615e13565b6020604051808303816000875af1925050508015613a1857506040513d601f19601f82011682018060405250810190613a159190615e74565b60015b613a9a573d8060008114613a48576040519150601f19603f3d011682016040523d82523d6000602084013e613a4d565b606091505b506000815103613a92576040517f08c379a0000000000000000000000000000000000000000000000000000000008152600401613a8990615d0d565b60405180910390fd5b805181602001fd5b63150b7a0260e01b7bffffffffffffffffffffffffffffffffffffffffffffffffffffffff1916817bffffffffffffffffffffffffffffffffffffffffffffffffffffffff191614915050613aef565b600190505b949350505050565b6000818310613b0f57613b0a8284613d1e565b613b1a565b613b198383613d1e565b5b905092915050565b600073ffffffffffffffffffffffffffffffffffffffff168273ffffffffffffffffffffffffffffffffffffffff1603613b91576040517f08c379a0000000000000000000000000000000000000000000000000000000008152600401613b8890615eed565b60405180910390fd5b613b9a81612f3b565b15613bda576040517f08c379a0000000000000000000000000000000000000000000000000000000008152600401613bd190615f59565b60405180910390fd5b613be6600083836138b5565b6001600360008473ffffffffffffffffffffffffffffffffffffffff1673ffffffffffffffffffffffffffffffffffffffff1681526020019081526020016000206000828254613c369190614d4e565b92505081905550816002600083815260200190815260200160002060006101000a81548173ffffffffffffffffffffffffffffffffffffffff021916908373ffffffffffffffffffffffffffffffffffffffff160217905550808273ffffffffffffffffffffffffffffffffffffffff16600073ffffffffffffffffffffffffffffffffffffffff167fddf252ad1be2c89b69c2b068fc378daa952ba7f163c4a11628f55a4df523b3ef60405160405180910390a4613cf7600083836138ba565b5050565b6000808273ffffffffffffffffffffffffffffffffffffffff163b119050919050565b600082600052816020526040600020905092915050565b828054613d4190614acc565b90600052602060002090601f016020900481019282613d635760008555613daa565b82601f10613d7c57805160ff1916838001178555613daa565b82800160010185558215613daa579182015b82811115613da9578251825591602001919060010190613d8e565b5b509050613db79190613dbb565b5090565b5b80821115613dd4576000816000905550600101613dbc565b5090565b6000604051905090565b600080fd5b600080fd5b60007fffffffff0000000000000000000000000000000000000000000000000000000082169050919050565b613e2181613dec565b8114613e2c57600080fd5b50565b600081359050613e3e81613e18565b92915050565b600060208284031215613e5a57613e59613de2565b5b6000613e6884828501613e2f565b91505092915050565b60008115159050919050565b613e8681613e71565b82525050565b6000602082019050613ea16000830184613e7d565b92915050565b600081519050919050565b600082825260208201905092915050565b60005b83811015613ee1578082015181840152602081019050613ec6565b83811115613ef0576000848401525b50505050565b6000601f19601f8301169050919050565b6000613f1282613ea7565b613f1c8185613eb2565b9350613f2c818560208601613ec3565b613f3581613ef6565b840191505092915050565b60006020820190508181036000830152613f5a8184613f07565b905092915050565b6000819050919050565b613f7581613f62565b8114613f8057600080fd5b50565b600081359050613f9281613f6c565b92915050565b600060208284031215613fae57613fad613de2565b5b6000613fbc84828501613f83565b91505092915050565b600073ffffffffffffffffffffffffffffffffffffffff82169050919050565b6000613ff082613fc5565b9050919050565b61400081613fe5565b82525050565b600060208201905061401b6000830184613ff7565b92915050565b61402a81613fe5565b811461403557600080fd5b50565b60008135905061404781614021565b92915050565b6000806040838503121561406457614063613de2565b5b600061407285828601614038565b925050602061408385828601613f83565b9150509250929050565b600080fd5b600080fd5b7f4e487b7100000000000000000000000000000000000000000000000000000000600052604160045260246000fd5b6140cf82613ef6565b810181811067ffffffffffffffff821117156140ee576140ed614097565b5b80604052505050565b6000614101613dd8565b905061410d82826140c6565b919050565b600067ffffffffffffffff82111561412d5761412c614097565b5b61413682613ef6565b9050602081019050919050565b82818337600083830152505050565b600061416561416084614112565b6140f7565b90508281526020810184848401111561418157614180614092565b5b61418c848285614143565b509392505050565b600082601f8301126141a9576141a861408d565b5b81356141b9848260208601614152565b91505092915050565b6000602082840312156141d8576141d7613de2565b5b600082013567ffffffffffffffff8111156141f6576141f5613de7565b5b61420284828501614194565b91505092915050565b6000819050919050565b61421e8161420b565b82525050565b60006020820190506142396000830184614215565b92915050565b61424881613f62565b82525050565b6000602082019050614263600083018461423f565b92915050565b60008060006060848603121561428257614281613de2565b5b600061429086828701614038565b93505060206142a186828701614038565b92505060406142b286828701613f83565b9150509250925092565b6000602082840312156142d2576142d1613de2565b5b60006142e084828501614038565b91505092915050565b600067ffffffffffffffff82111561430457614303614097565b5b602082029050602081019050919050565b600080fd5b6143238161420b565b811461432e57600080fd5b50565b6000813590506143408161431a565b92915050565b6000614359614354846142e9565b6140f7565b9050808382526020820190506020840283018581111561437c5761437b614315565b5b835b818110156143a557806143918882614331565b84526020840193505060208101905061437e565b5050509392505050565b600082601f8301126143c4576143c361408d565b5b81356143d4848260208601614346565b91505092915050565b6000806000606084860312156143f6576143f5613de2565b5b600061440486828701613f83565b935050602061441586828701614038565b925050604084013567ffffffffffffffff81111561443657614435613de7565b5b614442868287016143af565b9150509250925092565b6000806040838503121561446357614462613de2565b5b600083013567ffffffffffffffff81111561448157614480613de7565b5b61448d85828601614194565b925050602083013567ffffffffffffffff8111156144ae576144ad613de7565b5b6144ba85828601614194565b9150509250929050565b60006080820190506144d9600083018761423f565b6144e6602083018661423f565b6144f3604083018561423f565b614500606083018461423f565b95945050505050565b600080604083850312156145205761451f613de2565b5b600061452e85828601614038565b925050602083013567ffffffffffffffff81111561454f5761454e613de7565b5b61455b858286016143af565b9150509250929050565b60006020828403121561457b5761457a613de2565b5b600061458984828501614331565b91505092915050565b61459b81613e71565b81146145a657600080fd5b50565b6000813590506145b881614592565b92915050565b6000602082840312156145d4576145d3613de2565b5b60006145e2848285016145a9565b91505092915050565b6000806000806080858703121561460557614604613de2565b5b600061461387828801613f83565b945050602061462487828801613f83565b935050604061463587828801613f83565b925050606061464687828801613f83565b91505092959194509250565b600080fd5b60008083601f84011261466d5761466c61408d565b5b8235905067ffffffffffffffff81111561468a57614689614652565b5b6020830191508360208202830111156146a6576146a5614315565b5b9250929050565b60008083601f8401126146c3576146c261408d565b5b8235905067ffffffffffffffff8111156146e0576146df614652565b5b6020830191508360208202830111156146fc576146fb614315565b5b9250929050565b6000806000806040858703121561471d5761471c613de2565b5b600085013567ffffffffffffffff81111561473b5761473a613de7565b5b61474787828801614657565b9450945050602085013567ffffffffffffffff81111561476a57614769613de7565b5b614776878288016146ad565b925092505092959194509250565b6000806040838503121561479b5761479a613de2565b5b60006147a985828601614038565b92505060206147ba858286016145a9565b9150509250929050565b600067ffffffffffffffff8211156147df576147de614097565b5b6147e882613ef6565b9050602081019050919050565b6000614808614803846147c4565b6140f7565b90508281526020810184848401111561482457614823614092565b5b61482f848285614143565b509392505050565b600082601f83011261484c5761484b61408d565b5b813561485c8482602086016147f5565b91505092915050565b6000806000806080858703121561487f5761487e613de2565b5b600061488d87828801614038565b945050602061489e87828801614038565b93505060406148af87828801613f83565b925050606085013567ffffffffffffffff8111156148d0576148cf613de7565b5b6148dc87828801614837565b91505092959194509250565b600060ff82169050919050565b6148fe816148e8565b82525050565b600060208201905061491960008301846148f5565b92915050565b614928816148e8565b811461493357600080fd5b50565b6000813590506149458161491f565b92915050565b60008083601f8401126149615761496061408d565b5b8235905067ffffffffffffffff81111561497e5761497d614652565b5b60208301915083602082028301111561499a57614999614315565b5b9250929050565b6000806000604084860312156149ba576149b9613de2565b5b60006149c886828701614936565b935050602084013567ffffffffffffffff8111156149e9576149e8613de7565b5b6149f58682870161494b565b92509250509250925092565b60008060408385031215614a1857614a17613de2565b5b6000614a2685828601613f83565b925050602083013567ffffffffffffffff811115614a4757614a46613de7565b5b614a53858286016143af565b9150509250929050565b60008060408385031215614a7457614a73613de2565b5b6000614a8285828601614038565b9250506020614a9385828601614038565b9150509250929050565b7f4e487b7100000000000000000000000000000000000000000000000000000000600052602260045260246000fd5b60006002820490506001821680614ae457607f821691505b602082108103614af757614af6614a9d565b5b50919050565b7f4552433732313a20617070726f76656420717565727920666f72206e6f6e657860008201527f697374656e7420746f6b656e0000000000000000000000000000000000000000602082015250565b6000614b59602c83613eb2565b9150614b6482614afd565b604082019050919050565b60006020820190508181036000830152614b8881614b4c565b9050919050565b7f4552433732313a20617070726f76616c20746f2063757272656e74206f776e6560008201527f7200000000000000000000000000000000000000000000000000000000000000602082015250565b6000614beb602183613eb2565b9150614bf682614b8f565b604082019050919050565b60006020820190508181036000830152614c1a81614bde565b9050919050565b7f4552433732313a20617070726f76652063616c6c6572206973206e6f74206f7760008201527f6e6572206e6f7220617070726f76656420666f7220616c6c0000000000000000602082015250565b6000614c7d603883613eb2565b9150614c8882614c21565b604082019050919050565b60006020820190508181036000830152614cac81614c70565b9050919050565b7f4f776e61626c653a2063616c6c6572206973206e6f7420746865206f776e6572600082015250565b6000614ce9602083613eb2565b9150614cf482614cb3565b602082019050919050565b60006020820190508181036000830152614d1881614cdc565b9050919050565b7f4e487b7100000000000000000000000000000000000000000000000000000000600052601160045260246000fd5b6000614d5982613f62565b9150614d6483613f62565b9250827fffffffffffffffffffffffffffffffffffffffffffffffffffffffffffffffff03821115614d9957614d98614d1f565b5b828201905092915050565b6000614daf82613f62565b9150614dba83613f62565b925082821015614dcd57614dcc614d1f565b5b828203905092915050565b7f4552433732313a207472616e736665722063616c6c6572206973206e6f74206f60008201527f776e6572206e6f7220617070726f766564000000000000000000000000000000602082015250565b6000614e34603183613eb2565b9150614e3f82614dd8565b604082019050919050565b60006020820190508181036000830152614e6381614e27565b9050919050565b600081905092915050565b50565b6000614e85600083614e6a565b9150614e9082614e75565b600082019050919050565b6000614ea682614e78565b9150819050919050565b7f5769746864726177616c206f662066756e6473206661696c6564000000000000600082015250565b6000614ee6601a83613eb2565b9150614ef182614eb0565b602082019050919050565b60006020820190508181036000830152614f1581614ed9565b9050919050565b7f4552433732313a206f776e657220717565727920666f72206e6f6e657869737460008201527f656e7420746f6b656e0000000000000000000000000000000000000000000000602082015250565b6000614f78602983613eb2565b9150614f8382614f1c565b604082019050919050565b60006020820190508181036000830152614fa781614f6b565b9050919050565b60008160601b9050919050565b6000614fc682614fae565b9050919050565b6000614fd882614fbb565b9050919050565b614ff0614feb82613fe5565b614fcd565b82525050565b6000819050919050565b61501161500c82613f62565b614ff6565b82525050565b60006150238285614fdf565b6014820191506150338284615000565b6020820191508190509392505050565b7f4552433732313a2062616c616e636520717565727920666f7220746865207a6560008201527f726f206164647265737300000000000000000000000000000000000000000000602082015250565b600061509f602a83613eb2565b91506150aa82615043565b604082019050919050565b600060208201905081810360008301526150ce81615092565b9050919050565b60006150e18284614fdf565b60148201915081905092915050565b7f4c656e677468206d69736d617463680000000000000000000000000000000000600082015250565b6000615126600f83613eb2565b9150615131826150f0565b602082019050919050565b6000602082019050818103600083015261515581615119565b9050919050565b7f4e487b7100000000000000000000000000000000000000000000000000000000600052603260045260246000fd5b6000602082840312156151a1576151a0613de2565b5b60006151af84828501614936565b91505092915050565b60006151c382613f62565b91507fffffffffffffffffffffffffffffffffffffffffffffffffffffffffffffffff82036151f5576151f4614d1f565b5b600182019050919050565b7f5075626c69632053616c65206973206e6f742061637469766500000000000000600082015250565b6000615236601983613eb2565b915061524182615200565b602082019050919050565b6000602082019050818103600083015261526581615229565b9050919050565b7f596f75206d757374206d696e74206174206c656173742031204e465400000000600082015250565b60006152a2601c83613eb2565b91506152ad8261526c565b602082019050919050565b600060208201905081810360008301526152d181615295565b9050919050565b7f4d696e7420706572207472616e73616374696f6e206578636565646564000000600082015250565b600061530e601d83613eb2565b9150615319826152d8565b602082019050919050565b6000602082019050818103600083015261533d81615301565b9050919050565b7f4d617820746f6b656e73206d696e74656420666f72207468697320616464726560008201527f7373000000000000000000000000000000000000000000000000000000000000602082015250565b60006153a0602283613eb2565b91506153ab82615344565b604082019050919050565b600060208201905081810360008301526153cf81615393565b9050919050565b7f4d617820737570706c7920657863656564656400000000000000000000000000600082015250565b600061540c601383613eb2565b9150615417826153d6565b602082019050919050565b6000602082019050818103600083015261543b816153ff565b9050919050565b600061544d82613f62565b915061545883613f62565b9250817fffffffffffffffffffffffffffffffffffffffffffffffffffffffffffffffff048311821515161561549157615490614d1f565b5b828202905092915050565b7f506c656173652073656e642074686520636f727265637420616d6f756e74206f60008201527f6620455448000000000000000000000000000000000000000000000000000000602082015250565b60006154f8602583613eb2565b91506155038261549c565b604082019050919050565b60006020820190508181036000830152615527816154eb565b9050919050565b7f4552433732314d657461646174613a2055524920717565727920666f72206e6f60008201527f6e6578697374656e7420746f6b656e0000000000000000000000000000000000602082015250565b600061558a602f83613eb2565b91506155958261552e565b604082019050919050565b600060208201905081810360008301526155b98161557d565b9050919050565b600081905092915050565b60008190508160005260206000209050919050565b600081546155ed81614acc565b6155f781866155c0565b94506001821660008114615612576001811461562357615656565b60ff19831686528186019350615656565b61562c856155cb565b60005b8381101561564e5781548189015260018201915060208101905061562f565b838801955050505b50505092915050565b600061566a82613ea7565b61567481856155c0565b9350615684818560208601613ec3565b80840191505092915050565b600061569c82866155e0565b91506156a8828561565f565b91506156b482846155e0565b9150819050949350505050565b7f436c61696d206c616e6420697320696e61637469766500000000000000000000600082015250565b60006156f7601683613eb2565b9150615702826156c1565b602082019050919050565b60006020820190508181036000830152615726816156ea565b9050919050565b7f416c726561647920436c61696d65640000000000000000000000000000000000600082015250565b6000615763600f83613eb2565b915061576e8261572d565b602082019050919050565b6000602082019050818103600083015261579281615756565b9050919050565b7f506c656173652075736520636f727265637420436c61696d61626c652061646460008201527f7265737300000000000000000000000000000000000000000000000000000000602082015250565b60006157f5602483613eb2565b915061580082615799565b604082019050919050565b60006020820190508181036000830152615824816157e8565b9050919050565b7f486f6c6465722053616c65206973206e6f742061637469766500000000000000600082015250565b6000615861601983613eb2565b915061586c8261582b565b602082019050919050565b6000602082019050818103600083015261589081615854565b9050919050565b7f506c656173652075736520636f727265637420486f6c6465722061646472657360008201527f7300000000000000000000000000000000000000000000000000000000000000602082015250565b60006158f3602183613eb2565b91506158fe82615897565b604082019050919050565b60006020820190508181036000830152615922816158e6565b9050919050565b7f4f776e61626c653a206e6577206f776e657220697320746865207a65726f206160008201527f6464726573730000000000000000000000000000000000000000000000000000602082015250565b6000615985602683613eb2565b915061599082615929565b604082019050919050565b600060208201905081810360008301526159b481615978565b9050919050565b7f596f752068617665206e6f206c616e6420746f20636c61696d00000000000000600082015250565b60006159f1601983613eb2565b91506159fc826159bb565b602082019050919050565b60006020820190508181036000830152615a20816159e4565b9050919050565b6000615a32826148e8565b915060008203615a4557615a44614d1f565b5b600182039050919050565b6000615a5b826148e8565b915060ff8203615a6e57615a6d614d1f565b5b600182019050919050565b7f4552433732313a206f70657261746f7220717565727920666f72206e6f6e657860008201527f697374656e7420746f6b656e0000000000000000000000000000000000000000602082015250565b6000615ad5602c83613eb2565b9150615ae082615a79565b604082019050919050565b60006020820190508181036000830152615b0481615ac8565b9050919050565b7f4552433732313a207472616e736665722066726f6d20696e636f72726563742060008201527f6f776e6572000000000000000000000000000000000000000000000000000000602082015250565b6000615b67602583613eb2565b9150615b7282615b0b565b604082019050919050565b60006020820190508181036000830152615b9681615b5a565b9050919050565b7f4552433732313a207472616e7366657220746f20746865207a65726f2061646460008201527f7265737300000000000000000000000000000000000000000000000000000000602082015250565b6000615bf9602483613eb2565b9150615c0482615b9d565b604082019050919050565b60006020820190508181036000830152615c2881615bec565b9050919050565b7f4552433732313a20617070726f766520746f2063616c6c657200000000000000600082015250565b6000615c65601983613eb2565b9150615c7082615c2f565b602082019050919050565b60006020820190508181036000830152615c9481615c58565b9050919050565b7f4552433732313a207472616e7366657220746f206e6f6e20455243373231526560008201527f63656976657220696d706c656d656e7465720000000000000000000000000000602082015250565b6000615cf7603283613eb2565b9150615d0282615c9b565b604082019050919050565b60006020820190508181036000830152615d2681615cea565b9050919050565b7f4e487b7100000000000000000000000000000000000000000000000000000000600052601260045260246000fd5b6000615d6782613f62565b9150615d7283613f62565b925082615d8257615d81615d2d565b5b828204905092915050565b6000615d9882613f62565b9150615da383613f62565b925082615db357615db2615d2d565b5b828206905092915050565b600081519050919050565b600082825260208201905092915050565b6000615de582615dbe565b615def8185615dc9565b9350615dff818560208601613ec3565b615e0881613ef6565b840191505092915050565b6000608082019050615e286000830187613ff7565b615e356020830186613ff7565b615e42604083018561423f565b8181036060830152615e548184615dda565b905095945050505050565b600081519050615e6e81613e18565b92915050565b600060208284031215615e8a57615e89613de2565b5b6000615e9884828501615e5f565b91505092915050565b7f4552433732313a206d696e7420746f20746865207a65726f2061646472657373600082015250565b6000615ed7602083613eb2565b9150615ee282615ea1565b602082019050919050565b60006020820190508181036000830152615f0681615eca565b9050919050565b7f4552433732313a20746f6b656e20616c7265616479206d696e74656400000000600082015250565b6000615f43601c83613eb2565b9150615f4e82615f0d565b602082019050919050565b60006020820190508181036000830152615f7281615f36565b905091905056fea26469706673582212207ed022088d5180286466286fb77eb31defee979d7c59a97fbad93a79c57cf27064736f6c634300080e0033",
  "linkReferences": {},
  "deployedLinkReferences": {}
}